:020000040800F2
:10000000E84100205902000861020008630200086C
:10001000650200086702000869020008000000008D
:100020000000000000000000000000009D0100082A
:100030006D02000800000000F1010008AD16000884
:1000400073020008730200087302000873020008BC
:1000500073020008730200087302000873020008AC
:10006000730200087302000873020008730200089C
:10007000730200087302000873020008730200088C
:10008000730200087302000873020008730200087C
:10009000730200087302000873020008730200086C
:1000A00073020008F91700087302000873020008C1
:1000B000730200087302000873020008730200084C
:1000C000730200087302000873020008730200083C
:1000D000730200087302000873020008730200082C
:1000E000730200087302000873020008730200081C
:1000F000730200087302000873020008730200080C
:1001000073020008730200087302000873020008FB
:1001100073020008730200087302000873020008EB
:1001200073020008730200087302000873020008DB
:1001300073020008730200087302000873020008CB
:1001400073020008730200087302000873020008BB
:1001500073020008730200087302000873020008AB
:10016000730200087302000873020008730200089B
:100170007302000873020008730200080000000008
:100180007302000873020008DFF80CD000F0D8F802
:100190000048004711190008E84100202B4B19685E
:1001A0000868B0E8F04F80F30988BFF36F8F4FF015
:1001B000000080F3118870470000000006480068C6
:1001C000006880F3088862B661B6BFF34F8FBFF353
:1001D0006F8F00DF00BF00BF08ED00E0DFF80C000C
:1001E000016841F470010160704700BF88ED00E0D4
:1001F000EFF30980BFF36F8F144B1A681EF0100FD6
:1002000008BF20ED108A20E9F04F106008B44FF0CD
:10021000500080F31188BFF34F8FBFF36F8F02F050
:100220000DF84FF0000080F3118808BC19680868C9
:10023000B0E8F04F1EF0100F08BFB0EC108A80F34A
:100240000988BFF36F8F704700BF00BF38000020E0
:10025000EFF30580704700000648804706480047D6
:10026000FEE7FEE7FEE7FEE7FEE7FEE7FEE7FEE766
:10027000FEE7FEE795170008890100082DE9F05F09
:100280000546002092469B46884606468146402405
:100290001BE0284641464746224600F041F85346B7
:1002A0005A46C01A914110D311461846224600F012
:1002B00028F82D1A67EB01084F462246012000213D
:1002C00000F01FF817EB00094E41201EA4F10104B5
:1002D000DFDC484631462A464346BDE8F09F40EA07
:1002E00001039B0703D009E008C9121F08C0042AB4
:1002F000FAD203E011F8013B00F8013B521EF9D29B
:100300007047202A04DB203A00FA02F100207047EF
:100310009140C2F1200320FA03F319439040704743
:10032000202A04DB203A21FA02F00021704721FA4A
:1003300002F3D040C2F120029140084319467047B1
:10034000064C074D06E0E06840F0010394E8070022
:1003500098471034AC42F6D3FFF71AFF3C27000849
:100360005C27000854494A6822F440324A604A68CF
:1003700043681A434A600268526822F48072036834
:100380005A6002685368026943EA022203685A60AD
:100390000268526822F0407203685A60026852682C
:1003A00083681A4303685A600268926822F4006204
:1003B00003689A6002689268C3681A4303689A6087
:1003C0003E4B826A9A4218D00268926822F07062AC
:1003D00003689A6002689268836A1A4303689A60A5
:1003E0000268926822F0405203689A60026892683C
:1003F000C36A1A4303689A600BE00268926822F0AD
:10040000706203689A600268926822F04052036842
:100410009A600268926822F0020203689A60026899
:100420009368826943EA420203689A60026AA2B151
:100430000268526842F4006203685A6002685268B7
:1004400022F4604203685A6002685368426A521E8E
:1004500043EA423203685A6005E00268526822F4B7
:10046000006203685A600268D26A22F4700203686C
:10047000DA620268D36A828B521E43EA0252036830
:10048000DA620268926822F4007203689A60026875
:100490009368026B43EA422203689A60026892689A
:1004A00022F4806203689A6002689368426943EAB2
:1004B000822203689A607047002301400100000F08
:1004C00038B502460020009000BF92F83C00012899
:1004D00001D1022038BD012082F83C0000BF08682D
:1004E000092816D91068C0680C780A3C04EB44054A
:1004F0000724AC40A0431468E0600C780A3C04EB8D
:1005000044048868A0401468E46820431468E060EC
:1005100013E0106800690C7804EB44050724AC4034
:10052000A043146820610C7804EB44048868A04060
:10053000146824692043146820614868072817D28A
:100540001068406B0C79641E04EB84051F24AC40DA
:10055000A04314686063088880B20C79641E04EBC1
:100560008404A0401468646B20431468606331E025
:1005700048680D2817D21068006B0C79E41F04EB53
:1005800084051F24AC40A04314682063088880B20F
:100590000C79E41F04EB8404A0401468246B20430E
:1005A0001468206316E01068C06A0C790D3C04EBF7
:1005B00084051F24AC40A0431468E062088880B220
:1005C0000C790D3C04EB8404A0401468E46A2043D9
:1005D0001468E062194B1A4C1068A04206D10868F2
:1005E000122803D1586840F480005860144C1068F9
:1005F000A0421CD10868102802D00868112816D122
:10060000586840F400005860086810280FD10D4861
:1006100000680D4CB0FBF4F000EB8000400000904F
:1006200002E00098401E009000980028F9D100BF19
:10063000002082F83C0000BF00BF4BE700230140D0
:10064000002001401000002040420F0070B5044619
:1006500000250CB9012070BD1549A06A884200D060
:1006600000BF206C30B90020606484F83C00204654
:1006700000F020F8206C00F0100088B9206C20F405
:10068000885040F0020020642046FFF76BFE0020F7
:100690006064206C20F0020040F00100206400E063
:1006A000012500BF002084F83C0000BF2846D2E7A7
:1006B0000100000F10B586B004461049206888423A
:1006C00019D100BF002000900D48006840F48070F0
:1006D0000B4908600846006800F48070009000BF75
:1006E00000BF02200190032002900020039001A986
:1006F000044800F009F806B010BD000000200140D9
:100700004438024000000240F8B502460B4600257E
:10071000002400200021DCE0012606FA01F51E6815
:1007200006EA0504AC4273D15E68022E02D05E6810
:10073000122E13D1CF0802F1200656F827004E07DB
:10074000F70E0F26BE40B0434F07FF0E1E69BE4096
:100750003043CF0802F1200646F8270010684F000A
:100760000326BE40B0431E7906F003064F00BE408C
:10077000304310605E68012E08D05E68022E05D0FE
:100780005E68112E02D05E68122E13D190684F0061
:100790000326BE40B0434F00DE68BE403043906049
:1007A000506801268E40B0431E79C6F300168E4075
:1007B00030435060D0684F000326BE40B0434F0026
:1007C0009E68BE403043D0605E6806F08056B6F149
:1007D000805F7DD100BF00260096404E366846F40B
:1007E00080463E4F3E603E46366806F480460096A0
:1007F00000BF00BF3A4E8F0856F827008E07370F0C
:100800000F26BE40B043374EB24202D1002624E04C
:100810005EE0354EB24201D101261EE0334EB242B7
:1008200001D1022619E0324EB24201D1032614E072
:10083000304EB24201D104260FE02F4EB24201D118
:1008400005260AE02D4EB24201D1062605E02C4EC7
:10085000B24201D1072600E008268F073F0FBE40B5
:1008600030431F4E8F0846F82700264E3068A043BD
:100870005E6806F48036B6F5803F00D12043214EF5
:100880003060361D3068A0435E6806F40036B6F569
:10089000003F00D120431B4E361D3060361D3068AE
:1008A000A0435E6806F48016B6F5801F00D1204391
:1008B000144E08363060361D3068A0435E6806F47A
:1008C0000016B6F5001F00D120430E4E0C363060E6
:1008D000491C1029FFF420AFF8BD00004438024045
:1008E00008380140000002400004024000080240B5
:1008F000000C0240001002400014024000180240A8
:10090000001C0240003C01400AB1816101E00B047F
:1009100083617047014800687047000004000020B0
:100920000348006803490978084401490860704792
:10093000040000200C00002010B50D48006840F4B1
:1009400000700B4908600846006840F48060086049
:100950000846006840F480700860032000F0EAF860
:10096000002000F007F800F04BF8002010BD000058
:10097000003C024070B588B00446002500260022E5
:100980002146192000F097F8192000F087F800BFE1
:10099000002001901648006840F0010014490860EA
:1009A0000846006800F00100019000BF00BF02A9E6
:1009B00003A800F093F900F0B9F945000D48B5FB24
:1009C000F0F0461E0C480D49086040F2E7310B4834
:1009D000C160466000210161816000F063FC20B9C4
:1009E000064800F07AFC08B070BD0120FBE700006B
:1009F0004438024040420F0000000140BC0000208B
:100A000008B500BF002000902348006840F48040F3
:100A1000214908600846006800F48040009000BF4B
:100A200000BF00BF00200090081F006840F0805009
:100A3000091F08600846006800F08050009000BF61
:100A400000BF032000F076F8002211466FF00B0083
:100A500000F031F8002211466FF00A0000F02BF888
:100A6000002211466FF0090000F025F8002211461F
:100A7000501F00F020F800221146101F00F01BF854
:100A800000220F21901E00F016F800220F21501EA8
:100A900000F011F808BD00004438024000BF00F02B
:100AA0001F02012191404209920002F1E022C2F8A6
:100AB000001100BF70472DE9F05F80460D461646D5
:100AC000002700F0C1FD074639462A46334601F0AB
:100AD0000700C0F1070ABAF1040F02D94FF0040A67
:100AE00001E0C0F1070AD14600F1040ABAF1070F8C
:100AF00002D24FF0000A01E0A0F1030AD4464FF001
:100B0000010A0AFA09FAAAF1010A0AEA020A0AFA29
:100B10000CFA4FF0010B0BFA0CFBABF1010B0BEADB
:100B2000030B4AEA0B042146404600F095FDBDE860
:100B3000F09F000000BF00F00702064B19684FF657
:100B4000FF031940044B0B4343EA0221014B196098
:100B500000BF70470CED00E00000FA0570B50446D8
:100B60000D460CB9012070BD5848006800F00F0018
:100B7000A84209D255490D700846006800F00F00E0
:100B8000A84201D00120EEE7207800F00200022800
:100B90001DD1207800F00400042805D14C480068DD
:100BA00040F4E0504A490860207800F00800082826
:100BB00005D14748006840F4604045490860444812
:100BC000006820F0F000A1680843414908602078DF
:100BD00000F00100A8B36068012807D13C4808383C
:100BE0000068C0F34040B8B90120BCE76068022843
:100BF00002D06068032807D1354808380068C0F380
:100C0000406048B90120AEE7314808380068C0F3B9
:100C1000400008B90120A6E72D48006820F0030035
:100C2000616808432A490860FFF774FE064609E038
:100C3000FFF770FE801B41F28831884202D9032001
:100C400091E707E02248006800F00C006168B0EB13
:100C5000810FEDD11D48006800F00F00A84209D9AE
:100C60001A490D700846006800F00F00A84201D034
:100C7000012078E7207800F00400042807D1144808
:100C8000006820F4E050E1680843114908602078CA
:100C900000F00800082808D10D48006820F46040E2
:100CA000216940EAC1000A49086000F04FF808498C
:100CB0000968C1F30311074A515CC840064908603E
:100CC0000020FFF757FE00204DE70000003C0240E7
:100CD0000838024018270008100000200F22026088
:100CE0000D4A126802F0030242600B4A126802F0D9
:100CF000F0028260084A126802F4E052C260064ABA
:100D0000126802F46042D2080261044A126802F0DA
:100D10000F020A607047000008380240003C0240A1
:100D200001480068704700001000002000B5FFF780
:100D3000F7FF04490968C1F34231034A515CC840D6
:100D400000BD000008380240282700082DE9F047C0
:100D5000002400250026A1462548006800F00C006C
:100D600020B1042805D008283AD105E0DFF88490A6
:100D700039E0DFF8849036E01D48001F006800F07D
:100D80003F041B48001F006800F4800078B11A4837
:100D90001749091F0968C1F38811A0FB01700146BA
:100DA000224600233846FFF769FA05460EE011484F
:100DB0000F49091F0968C1F38811A0FB01700146A2
:100DC000224600233846FFF759FA05460848001F17
:100DD0000068C0F30140401C4600B5FBF6F902E094
:100DE000DFF8109000BF00BF4846BDE8F087000064
:100DF000083802400024F40000127A00F8B50446D6
:100E00000CB90120F8BD207800F00100002874D052
:100E1000F948006800F00C0004280DD0F64800687E
:100E200000F00C00082813D1F348001F006800F4FC
:100E30008000B0F5800F0BD1EF4808380068C0F390
:100E40004040002859D06068002856D10120D9E7D9
:100E500000BF6068B0F5803F08D1E74808380068F7
:100E600040F48030E449083908601EE06068B0F55D
:100E7000A02F0DD1E0480838006840F48020DE49FA
:100E8000083908600846006840F4803008600CE0CB
:100E9000D9480838006820F48030D74908390860FC
:100EA0000846006820F48020086000BF606890B1A8
:100EB000FFF730FD054606E0FFF72CFD401B6428D8
:100EC00001D903209EE7CC4808380068C0F34040B1
:100ED0000028F1D011E0FFF71DFD054606E0FFF701
:100EE00019FD401B642801D903208BE7C24808384C
:100EF0000068C0F340400028F1D1207800F00200E3
:100F000002285FD1BC48006800F00C0058B1BA4814
:100F1000006800F00C0008281CD1B748001F0068CA
:100F200000F48000B0B9B44808380068C0F340004D
:100F300020B1E068012801D0012063E7AE480838FD
:100F4000006820F0F800216940EAC100AA49083988
:100F5000086037E0E06800B30120A8490860FFF7A7
:100F6000D9FC054606E0FFF7D5FC401B022801D955
:100F7000032047E7A04808380068C0F34000002875
:100F8000F1D09D480838006820F0F800216940EA57
:100F9000C10099490839086014E0002097490860A9
:100FA000FFF7B8FC054606E0FFF7B4FC401B02283B
:100FB00001D9032026E7904808380068C0F34000B4
:100FC0000028F1D1207800F0080008282CD16069B1
:100FD000A8B101208A490860FFF79CFC054606E09D
:100FE000FFF798FC401B022801D903200AE782483A
:100FF0006C300068C0F340000028F1D014E00020FD
:101000007F490860FFF786FC054606E0FFF782FC93
:10101000401B022801D90320F4E677486C300068B1
:10102000C0F340000028F1D1207800F0040004282B
:1010300070D1002670483830006800F0805090B9B8
:1010400000BF002000906C483830006840F08050AD
:101050006949383108600846006800F08050009007
:1010600000BF00BF01266748006800F48070B0B977
:101070006448006840F4807062490860FFF74AFCE9
:10108000054606E0FFF746FC401B022801D9032075
:10109000B8E65C48006800F480700028F2D000BF19
:1010A000A068012808D154486830006840F0010069
:1010B0005149683108601DE0A06805280DD14E48EF
:1010C0006830006840F004004B4968310860084609
:1010D000006840F0010008600CE047486830006894
:1010E00020F001004449683108600846006820F09B
:1010F0000400086000BFA068A8B1FFF70BFC05461C
:1011000009E0FFF707FC401B41F28831884202D911
:10111000032077E626E0384868300068C0F34000D6
:101120000028EED013E0FFF7F5FB054608E0FFF7D7
:10113000F1FB401B41F28831884201D9032061E66E
:101140002D4868300068C0F340000028EFD1012E20
:1011500007D129483830006820F0805026493831BE
:10116000086000BFA069B8B32348006800F00C0015
:1011700008285ED0A069022846D100201F490866D1
:10118000FFF7C8FB054606E0FFF7C4FB401B02283B
:1011900001D9032036E6184808380068C0F34060DB
:1011A0000028F1D1D4E907010843616A40EA8111BE
:1011B0000122A06AC2EB500041EA00412C20005DF0
:1011C00041EA00600C49091F086001200B490866CC
:1011D000FFF7A0FB054607E02DE0FFF79BFB401B58
:1011E000022801D903200DE6034808380068C0F33F
:1011F00040600028F1D01EE008380240000047425D
:10120000800E47420070004000200C490866FFF73E
:1012100081FB054606E0FFF77DFB401B022801D954
:101220000320EFE506480068C0F340600028F2D1D3
:1012300001E00120E6E50020E4E50000000047426F
:1012400000380240042808D14FF0E021096941F03C
:1012500004014FF0E022116107E04FF0E02109693D
:1012600021F004014FF0E0221161704770B504468F
:101270002546681EB0F1807F01D301200FE0681E73
:101280004FF0E02148610F214FF0FF3000F0E4F90A
:1012900000204FF0E021886107200861002070BD28
:1012A0007047704710B504460CB9012010BD94F882
:1012B000390028B9002084F83800204600F00CF8E6
:1012C000022084F83900211D206800F09DFA0120D9
:1012D00084F839000020E9E7704701460868C068D3
:1012E00040F001000A68D0600868006840F0010022
:1012F0000A68106000207047704710B504462068E7
:101300000069C0F34000D8B12068C068C0F3400055
:10131000B0B16FF0020021680861012020762068DA
:10132000806900F0030018B12046FFF7E5FF05E0F3
:10133000204600F0ADF8204600F0ABF80020207603
:1013400020680069C0F38000D8B12068C068C0F38D
:101350008000B0B16FF0040021680861022020769F
:101360002068806900F4407018B12046FFF7C4FF80
:1013700005E0204600F08CF8204600F08AF80020B6
:10138000207620680069C0F3C000D8B12068C0682A
:10139000C0F3C000B0B16FF00800216808610420FC
:1013A00020762068C06900F0030018B12046FFF7DE
:1013B000A3FF05E0204600F06BF8204600F069F836
:1013C0000020207620680069C0F30010D8B12068A2
:1013D000C068C0F30010B0B16FF010002168086160
:1013E000082020762068C06900F4407018B12046BB
:1013F000FFF782FF05E0204600F04AF8204600F0A3
:1014000048F8002020762068006900F0010058B1FB
:101410002068C06800F0010030B16FF00100216861
:101420000861204600F036F820680069C0F3C0105B
:1014300058B12068C068C0F3C01030B16FF08000B0
:10144000216808612046FFF72BFF20680069C0F380
:10145000801058B12068C068C0F3801030B16FF0C0
:10146000400021680861204600F020F820680069EB
:10147000C0F3401058B12068C068C0F3401030B1CC
:101480006FF02000216808612046FFF70AFF10BDB9
:101490007047704710B5044603492068884201D15F
:1014A000FFF73EFA10BD0000000001407047000049
:1014B0001FB51648164908604FF480304860002177
:1014C00013488160016181610162C16211498162D9
:1014D0000021C1600121C16100210163012141613D
:1014E000FFF7B4F818B1F2210BA000F0FFF90120CA
:1014F000009001900020029069460548FEF7E0FF49
:1015000018B1FC2104A000F0F1F91FBD002001403A
:10151000740000200100000F2E2E2F5372632F6DD8
:1015200061696E2E6300000000B587B000BF002027
:1015300001903F48006840F004003D4908600846BB
:10154000006800F00400019000BF00BF00BF002051
:1015500001900846006840F0800008600846006876
:1015600000F08000019000BF00BF00BF002001908C
:101570000846006840F0010008600846006800F076
:101580000100019000BF00BF00BF0020019008468D
:10159000006840F0020008600846006800F00200A1
:1015A000019000BF00BF00BF002001900846006806
:1015B00040F0080008600846006800F0080001904C
:1015C00000BF00BF00224FF470411A48FFF79CF99A
:1015D00001200290184803900020049002A91748A7
:1015E000FFF792F80420029000200390049002A9D3
:1015F0001348FFF789F84FF47040029001200390E0
:10160000022004900020059002A90A48FFF77CF808
:101610008020029002200390002004900590062074
:10162000069002A90748FFF76FF807B000BD000059
:1016300030380240000C024000001210000002404E
:10164000000402400008024002480068C0F3022083
:10165000704700000CED00E010B5002807DA0A071B
:10166000140E054A00F00F031B1FD45403E00A07B1
:10167000130E024A135410BD18ED00E000E400E020
:1016800000BF012211030848FFF73EF9C82000F00F
:1016900062F900224FF480510348FFF735F9C82062
:1016A00000F059F9EDE70000000C024010B500F021
:1016B0005EF910BD10B592B000BF002000902F4819
:1016C000006840F080502D4908600846006800F02E
:1016D0008050009000BF00BF00BF0020009028484D
:1016E000006840F48040264908600846006800F41D
:1016F0008040009000BF00BF0120069000040790CA
:1017000002200C9041050D9108210E914FF4A87113
:101710000F91022110910721119106A8FFF76EFB8E
:1017200018B1BF2117A000F0E1F80F2001900220AE
:101730000290002003904FF4A05004904FF480508A
:101740000590052101A8FFF709FA18B1CD210DA0D8
:1017500000F0CCF8FFF7E4FA4FF47A71B0FBF1F443
:101760002046FFF783FD0420FFF76CFD00220F21C8
:10177000501EFFF7A0F912B010BD00004038024023
:10178000007000402E2E2F5372632F6D61696E2EF4
:10179000630000001448006840F4700012490860BB
:1017A0001248006840F001001049086000200F490D
:1017B000083108600D4800680D4908400B49086071
:1017C0000C48091D0860081F006820F48020091FCC
:1017D0000860002005490C3108604FF000600249A4
:1017E000803908607047000088ED00E00038024052
:1017F000FFFFF6FE1030002410B50248FFF77DFD14
:1018000010BD0000BC000020002202682C4B984252
:101810000ED0B0F1804F0BD02A4B984208D02A4B03
:10182000984205D0294B984202D0294B984201D1C9
:10183000012300E000231BB122F070024B681A4321
:101840001F4B984220D0B0F1804F1DD01D4B9842C5
:101850001AD01D4B984217D01C4B984214D01C4BE9
:10186000984211D01B4B98420ED01B4B98420BD084
:101870001A4B984208D01A4B984205D0194B9842FF
:1018800002D0194B984201D1012300E000231BB183
:1018900022F44072CB681A4302608B68C3620B6803
:1018A0008362074B984202D0094B984201D1012331
:1018B00000E000230BB10B69036301234361704710
:1018C000000001400004004000080040000C0040FF
:1018D0000004014000400140004401400048014034
:1018E00000180040001C00400020004000BFFEE740
:1018F00002E008C8121F08C1002AFAD170477047D9
:10190000002001E001C1121F002AFBD17047000036
:1019100086B0FFF711F8FFF7CDFEFFF705FEFFF7E2
:10192000C7FD1422064901A8FEF7D9FC002101A831
:1019300000F025F80349086000F034FC00BFFEE722
:10194000042700080000002001460020842901D05F
:10195000CA1C1044704770B5044625460DB129468F
:1019600000E00121084600F0EFFB002070BD10B53B
:1019700000F092FD012801D000F044FD10BDFEB53D
:1019800004460D46B4F90800FFF7DEFF064602A83C
:10199000CDE90060238A9AB22B46D4E9001000F00A
:1019A0004BFD012801D00020FEBD0298FCE700009D
:1019B0002DE9F04105460E461C4807681C480068A2
:1019C000001D00F0D5FA50B91948006890F82C10A5
:1019D0000120884017490968814316480160681C46
:1019E00038B936B112480168091D134800F0FEFAF3
:1019F0001AE07C190E4800684460BC4207D20C48CB
:101A00000168091D0D48006800F0D6FA0CE008488E
:101A10000168091D0A48006800F0CEFA094800680C
:101A2000844201D207480460BDE8F0814C000020E8
:101A30003800002050000020D43D0020400000204D
:101A40003C0000206800002010B5044600F0DAFADF
:101A500023480068401C224908602248006840B9B9
:101A6000204804600846006801280DD100F02AF9DA
:101A70000AE01D48006838B91A480068C06AE16A7F
:101A8000884201D81748046018480068401C17496C
:101A9000086094F82C100120884015490968084313
:101AA00013490860E16A01EB8101124A02EB8100EF
:101AB000211D00F09BFA00F0CFFA0B48006868B1D6
:101AC00008480068C06AE16A884207D24FF0805037
:101AD00009490860BFF34F8FBFF36F8F10BD00003F
:101AE000480000203800002054000020640000203E
:101AF00050000020F83C002004ED00E070B523E029
:101B000000F094FB1348006808B9012000E00020B1
:101B1000054600F075FDBDB900F074FA0D48C068C7
:101B2000C468201D00F024FA0B480068401E0A49D2
:101B300008600A480068401E0849086000F08CFAF6
:101B4000204600F00DF800BF044800680028D7D1F7
:101B500070BD0000C03D002048000020440000206F
:101B600010B50446206B00F095FA204600F092FA7A
:101B700010BD000030B54FF47053174800F0070453
:101B80002CB1C01D20F00700134C041B1B1B024688
:101B9000124C22600024114D6C60D018083820F0DF
:101BA00007000F4C206000240D4D2D686C600C4D1B
:101BB0002D682C601146441A4C60094C24680C6056
:101BC000084D4C682C60084D4C682C604FF0004468
:101BD000064D2C6030BD0000F800002014000020ED
:101BE0001C000020240000202000002028000020ED
:101BF00000BFFFF783FF064800680128F9D94FF0BE
:101C0000805004490860BFF34F8FBFF36F8FF0E738
:101C1000F83C002004ED00E02DE9FF5F81460F460F
:101C20009246DDE90E6B109CAAF10100216B01EBDD
:101C3000800828F0070808F0070008B9012000E034
:101C4000002050B900BF502080F31188BFF34F8FA0
:101C5000BFF36F8F00BF00BFFEE7002507E0795D8F
:101C600004F134004155785D00B902E06D1C102D7F
:101C7000F5D300BF002143200155072E00D30626CF
:101C8000E66266640020A064201D00F092F904F171
:101C9000180000F08EF92461C6F10700A0616462AB
:101CA0000020E06484F8500049464046039A00F062
:101CB00049F92060BBF1000F01D0CBF80040BDE82E
:101CC000FF9F000010B5002407E004EB84010F4AD9
:101CD00002EB810000F060F9641C072CF5D30C487E
:101CE00000F05AF90B4800F057F90B4800F054F98E
:101CF0000A4800F051F90A4800F04EF90448094931
:101D0000086004480849086010BD0000F83C002045
:101D1000843D0020983D0020AC3D0020C03D0020C7
:101D2000D43D00203C0000204000002010B50146BA
:101D3000164800E0006803688B42FBD30246436804
:101D400013448B4204D143684C68234443600146EA
:101D50000A464B6813440468A34211D10C4C036833
:101D60002468A34208D04B680468646823444B602D
:101D700003681B680B6005E0054B1B680B6001E006
:101D800003680B60884200D0016010BD1400002081
:101D90001C0000200A490968096809B9012100E00E
:101DA000002121B14FF0FF31064A116006E00449DD
:101DB0000968C968C868034A416811607047000033
:101DC0003C000020680000200E480068401C08B954
:101DD000012000E0002050B900BF502080F311889E
:101DE000BFF34F8FBFF36F8F00BF00BFFEE700BF91
:101DF000502080F31188BFF34F8FBFF36F8F00BF68
:101E000000BFFEE72C0000202DE9F04104464FF012
:101E1000000800F00BFA4648006808B9FFF7AAFE70
:101E200044480068204000286BD1D4B1083404F045
:101E30000700B0B104F00700C0F10800044404F04A
:101E4000070008B9012000E0002050B900BF502071
:101E500080F31188BFF34F8FBFF36F8F00BF00BFB8
:101E6000FEE7002C4DD034480068844249D8334EF8
:101E70003046056801E02E462D686868A04202D20F
:101E800028680028F7D12A480068854239D0306890
:101E900000F10808286830606868001B102819D90C
:101EA0002F1907F0070008B9012000E0002050B901
:101EB00000BF502080F31188BFF34F8FBFF36F8FA7
:101EC00000BF00BFFEE76868001B78606C603846A2
:101ED000FFF72CFF184968680968081A1649086056
:101EE0000846006816490968884203D2124800680B
:101EF000134908600F496868096808436860002052
:101F0000286000F07DFB08F0070008B9012000E020
:101F1000002050B900BF502080F31188BFF34F8FCD
:101F2000BFF36F8F00BF00BFFEE74046BDE8F08102
:101F30001C000020280000202000002014000020A9
:101F400024000020001F4FF080730360001F21F069
:101F500001030360001F054B036014380260001F7B
:101F60006FF002030360203870470000C91D0008AD
:101F700001460A69D1E901309860D1E9010358604E
:101F80005068884201D1886850600020086110685C
:101F9000401E10601068704700F1080141604FF06A
:101FA000FF31816000F10801C16001610021016021
:101FB000704700210161704710B502460B685C1C38
:101FC0000CB9106907E002F1080000E040684468BD
:101FD00024689C42FAD944684C604C68A1608860CF
:101FE00041600A611468641C146010BD42684A6054
:101FF00093688B60936859609160086103685B1C0B
:102000000360704700BF502080F31188BFF34F8FEB
:10201000BFF36F8F00BF0E480068401C0C4908607A
:1020200008460068012812D10A480068C0B208B901
:10203000012000E0002050B900BF502080F311883B
:10204000BFF34F8FBFF36F8F00BF00BFFEE7704736
:102050002C00002004ED00E00D48006850B900BFDE
:10206000502080F31188BFF34F8FBFF36F8F00BFF5
:1020700000BFFEE706480068401E054908600846A4
:10208000006820B9002080F3118800BF00BF7047AE
:102090002C00002070B506463546002E3FD0083D86
:1020A0002C461F4960680968084008B1012000E01B
:1020B000002050B900BF502080F31188BFF34F8F2C
:1020C000BFF36F8F00BF00BFFEE7206808B9012093
:1020D00000E0002050B900BF502080F31188BFF30A
:1020E0004F8FBFF36F8F00BF00BFFEE70C496068E2
:1020F0000968084098B1206888B90949606809688A
:102100008843606000F092F80649606809680844F6
:10211000044908602046FFF709FE00F071FA70BD1F
:102120002800002020000020064800684FF47A7143
:10213000B0FBF1F0401E4FF0E0214861072008613C
:10214000704700001000002070B504460025D4B18F
:102150001248006808B9012000E0002050B900BF13
:10216000502080F31188BFF34F8FBFF36F8F00BFF4
:1021700000BFFEE700F05AF800212046FFF718FCE8
:1021800000F03EFA05463DB94FF080500449086022
:10219000BFF34F8FBFF36F8F70BD00007000002042
:1021A00004ED00E01CB51A4800210B468022CDE961
:1021B000001018A1194800F03FF90446012C15D170
:1021C00000BF502080F31188BFF34F8FBFF36F8F94
:1021D00000BF4FF0FF30124908600120114908602C
:1021E00000201149086000F06FF810E0601C08B191
:1021F000012000E0002050B900BF502080F311887A
:10220000BFF34F8FBFF36F8F00BF00BFFEE71CBD52
:102210006C00002049444C4500000000F11B000800
:1022200068000020540000204C0000200248006894
:10223000401C014908607047700000201D4800687C
:1022400018B101201C49086032E000201A490860DA
:102250001A480068B0FA80F0C0F11F0101EB81005C
:10226000174A52F8200008B1012000E0002050B9C0
:1022700000BF502080F31188BFF34F8FBFF36F8FE3
:1022800000BF00BFFEE701EB81020D4B03EB8200B4
:1022900042685268426000F108024368934202D1EA
:1022A0004268526842604268D268064B1A6000BFBA
:1022B00070470000700000205C00002050000020EB
:1022C000F83C0020380000201CB54748006847490A
:1022D000884201D0012000E0002050B900BF50200A
:1022E00080F31188BFF34F8FBFF36F8F00BF00BF24
:1022F000FEE73D4800683D49491E884201D0012063
:1023000000E0002050B900BF502080F31188BFF3D7
:102310004F8FBFF36F8F00BF00BFFEE73449084601
:1023200000780190FF200A4610700846007800905F
:102330009DF8000000F0F0009DF80020904201D1CF
:10234000012000E0002050B900BF502080F3118828
:10235000BFF34F8FBFF36F8F00BF00BFFEE79DF845
:10236000000000F05000234A10700720224A10603D
:1023700009E021480068401E1F4A10609DF80000D7
:102380004006000E00909DF8000000F080008028BC
:10239000EFD0194800680002174A10601046008804
:1023A00000F4E0601060124A019810700E4820306E
:1023B000006840F470000C4920310860084600684D
:1023C00040F070400860FFF7AFFE00200B49086046
:1023D000FDF704FF0A48006840F0404008490860E3
:1023E000FDF7ECFE00201CBD00ED00E071C20F41C6
:1023F00000E400E030000020340000202C00002029
:1024000034EF00E010B500BF502080F31188BFF317
:102410004F8FBFF36F8F00BF00F04EF818B14FF031
:1024200080500449086000BF002080F3118800BF7D
:1024300010BD000004ED00E02DE9FF4F85B080469F
:1024400089461746DDE912ABB800FFF7DDFC06460A
:1024500056B15420FFF7D8FC04460CB1266304E0C3
:102460003046FFF717FE00E000247CB10020CDE9E4
:1024700000ABCDE902403A4649464046089BFFF78B
:10248000CBFB2046FFF7E0FA012501E04FF0FF35D6
:10249000284609B0BDE8F08F0549096809B901204F
:1024A00005E00449096809B9022000E000207047EE
:1024B00054000020700000202DE9F0414FF000088A
:1024C00044480068002877D143480068451C4248CA
:1024D000056015BB41480068006808B9012000E0AC
:1024E000002050B900BF502080F31188BFF34F8FF8
:1024F000BFF36F8F00BF00BFFEE73848076838485A
:102500000068364908603648076036480068401C55
:1025100034490860FFF73EFC00BF3348006885423D
:102520003CD300BF2D480068006808B9012000E0D6
:10253000002020B14FF0FF302B4908602DE02748E4
:102540000068C068C4686668B54202D22648066062
:1025500023E0201DFFF70CFDA06A18B104F118005C
:10256000FFF706FD94F82C10012088401F490968E8
:1025700008431E490860E16A01EB81011C4A02EB35
:102580008100211DFFF732FD1A49E06A0968C96A16
:102590008842C7D34FF00108C4E700BF1548006860
:1025A000C06A00EB8000124951F82000012801D9CF
:1025B0004FF0010805E0FFE70F480068401C0E4996
:1025C00008600E48006808B14FF001084046BDE8B9
:1025D000F0810000700000204C0000203C00002032
:1025E0004000002060000020680000205000002013
:1025F000F83C002038000020580000205C0000203B
:1026000070B5002400263648006850B900BF50203D
:1026100080F31188BFF34F8FBFF36F8F00BF00BFF0
:10262000FEE7FFF7EFFC2E480068401E2C490860CB
:102630000846006800284FD12A48006800284BD07F
:1026400024E02948C068C46804F11800FFF790FC32
:10265000201DFFF78DFC94F82C10012088402349A1
:102660000968084321490860E16A01EB8101204AB9
:1026700002EB8100211DFFF7B9FC1E49E06A0968E1
:10268000C96A884202D301201B49086016480068C5
:1026900008B9012000E000200028D2D00CB1FFF7DB
:1026A00079FB1648056865B100BFFFF705FF10B15B
:1026B0000120114908606D1E002DF6D100200F4940
:1026C00008600D48006838B1012630070C490860E1
:1026D000BFF34F8FBFF36F8FFFF7BEFC304670BD67
:1026E0007000002048000020AC3D00205000002079
:1026F000F83C0020380000205C000020580000203A
:1027000004ED00E0302700088116000800000000FA
:102710000000000080000000000000000000000039
:102720000102030406070809000000000102030477
:1027300064656661756C745461736B005C27000896
:102740000000002074000000F0180008D0270008E6
:10275000740000207441000000190008000000000F
:102760000000000010000000010000000024F40040
:102770000000000000000000000000000000000059
:102780000000000000000000AAAAAAAA00000000A1
:102790000000000000000000000000000000000039
:1027A0000000000000000000000000000000000029
:1027B0000000000000000000000000000000000019
:1027C0000000000000000000000000000000000009
:040000050800018965
:00000001FF
