:020000040800F2
:1000000098420020590200086102000863020008BB
:10001000650200086702000869020008000000008D
:100020000000000000000000000000009D0100082A
:100030006D02000800000000F10100082521000801
:1000400073020008730200087302000873020008BC
:1000500073020008730200087302000873020008AC
:10006000730200087302000873020008730200089C
:10007000730200087302000873020008730200088C
:1000800073020008730200082105000873020008CB
:10009000730200087302000873020008730200086C
:1000A000730200087122000873020008730200083E
:1000B000730200087302000873020008730200084C
:1000C000730200087302000873020008730200083C
:1000D000730200087302000873020008730200082C
:1000E000730200087302000873020008730200081C
:1000F000730200087302000873020008730200080C
:1001000073020008730200087302000873020008FB
:1001100073020008730200088122000873020008BD
:100120008D060008730200087302000873020008BD
:1001300073020008730200087302000873020008CB
:1001400073020008730200087302000873020008BB
:1001500073020008730200087302000873020008AB
:10016000730200087302000873020008730200089B
:100170007302000873020008730200080000000008
:100180007302000873020008DFF80CD000F0B6F923
:1001900000480047F1230008984200202B4B1968C3
:1001A0000868B0E8F04F80F30988BFF36F8F4FF015
:1001B000000080F3118870470000000006480068C6
:1001C000006880F3088862B661B6BFF34F8FBFF353
:1001D0006F8F00DF00BF00BF08ED00E0DFF80C000C
:1001E000016841F470010160704700BF88ED00E0D4
:1001F000EFF30980BFF36F8F144B1A681EF0100FD6
:1002000008BF20ED108A20E9F04F106008B44FF0CD
:10021000500080F31188BFF34F8FBFF36F8F02F050
:10022000B3FD4FF0000080F3118808BC196808681E
:10023000B0E8F04F1EF0100F08BFB0EC108A80F34A
:100240000988BFF36F8F704700BF00BF4C000020CC
:10025000EFF30580704700000648804706480047D6
:10026000FEE7FEE7FEE7FEE7FEE7FEE7FEE7FEE766
:10027000FEE7FEE70D220008890100082DE9F05F86
:100280000546002092469B46884606468146402405
:100290001BE0284641464746224600F0C1F8534637
:1002A0005A46C01A914110D311461846224600F012
:1002B000A8F82D1A67EB01084F46224601200021BD
:1002C00000F09FF817EB00094E41201EA4F1010435
:1002D000DFDC484631462A464346BDE8F09F40EA07
:1002E00001039B0703D009E008C9121F08C0042AB4
:1002F000FAD203E011F8013B00F8013B521EF9D29B
:1003000070472DE9F04D81EA030404F0004B21F021
:10031000004514464FF0000A23F0004150EA050260
:1003200020D054EA01021DD0C5F30A570246C5F396
:100330001303C1F31300C1F30A5640F4801543F4CC
:100340008013A7EB0608101BD64608F2FD3873EBA6
:10035000050002D308F1010801E092185B41B8F1F1
:10036000000F03DA00200146BDE8F08D00204FF4B5
:100370008011064684460EE0171B73EB050705D374
:10038000121B63EB050306434CEA010C49084FEAD4
:10039000300092185B4150EA0107EDD152EA0300A8
:1003A00012D082EA040083EA0501084305D0101B3D
:1003B000AB4106D20122002306E000224FF00043A9
:1003C00002E06FF0010253101AEB06004CEB0851EB
:1003D00010EB0A0041EB0B01BDE8F04D00F030B826
:1003E0000EB5C10F80EAE0700844CA07002140F250
:1003F00033438DE80E000A460B4600F030F803B098
:1004000000BD202A04DB203A00FA02F100207047E8
:100410009140C2F1200320FA03F319439040704742
:10042000202A04DB203A21FA02F00021704721FA49
:1004300002F3D040C2F120029140084319467047B0
:1004400010B5141E73F1000408DA401C41F10001DC
:1004500092185B411A4301D120F0010010BD2DE933
:10046000F04D92469B4611B1B1FA81F202E0B0FA2A
:1004700080F220329046FFF7C4FF04460F4640EA60
:100480000A0041EA0B0153465A46084313D011466D
:1004900053EA010019D0C8F140025046FFF7C0FFEF
:1004A00005460E46504659464246FFF7AAFF084306
:1004B00005D0012004E020463946BDE8F08D00203B
:1004C000054346EAE0762C4337430A986305E40A7D
:1004D000A0EB08000022FD0A44EA47540A3002D586
:1004E00000200146E9E7010510196941DDE90845E9
:1004F00000196941BDE8F04DA2E70000064C074D28
:1005000006E0E06840F0010394E8070098471034E3
:10051000AC42F6D3FFF73CFE90320008B032000840
:1005200010B5024800F005FA10BD00008800002058
:1005300054494A6822F440324A604A6843681A4380
:100540004A600268526822F4807203685A60026846
:100550005368026943EA022203685A6002685268DB
:1005600022F0407203685A600268526883681A4336
:1005700003685A600268926822F4006203689A6015
:1005800002689268C3681A4303689A603E4B826AA5
:100590009A4218D00268926822F0706203689A60EA
:1005A00002689268836A1A4303689A6002689268D4
:1005B00022F0405203689A6002689268C36A1A4344
:1005C00003689A600BE00268926822F07062036828
:1005D0009A600268926822F0405203689A6002684A
:1005E000926822F0020203689A6002689368826946
:1005F00043EA420203689A60026AA2B10268526842
:1006000042F4006203685A600268526822F4604251
:1006100003685A6002685368426A521E43EA4232D3
:1006200003685A6005E00268526822F400620368B9
:100630005A600268D26A22F470020368DA620268C1
:10064000D36A828B521E43EA02520368DA6202685E
:10065000926822F4007203689A6002689368026BE1
:1006600043EA422203689A600268926822F4806238
:1006700003689A6002689368426943EA82220368C9
:100680009A607047002301400100000F10B5024836
:1006900000F02CFB10BD0000D000002001460878BF
:1006A00010381823B0FBF3F20848805CC865032AB1
:1006B00005D908686FF30900001D886503E0086824
:1006C0006FF309008865886D704700006432000888
:1006D000014600208A6A8B69CBB932B1012A0DD05C
:1006E000022A03D0032A10D10EE000BFCB6A03F028
:1006F0008073B3F1807F00D1012007E0CB6AB3F1B2
:10070000C07F00D1012001E000E000BF34E08B6930
:10071000B3F5005F1AD132B1012A07D0022A03D003
:10072000032A11D10AE000BF01200EE0CB6A03F0DA
:100730008073B3F1807F00D1012006E0CB6AB3F172
:10074000C07F00D1012000E000BF15E032B1012AD6
:1007500005D0022A04D0032A0CD103E000BF00BF59
:10076000012008E0CB6A03F08073B3F1807F00D1F1
:10077000012000E000BF00BF7047704738B5024657
:100780000020009000BF92F83C00012801D1022017
:1007900038BD012082F83C0000BF0868092816D93E
:1007A0001068C0680C780A3C04EB44050724AC4090
:1007B000A0431468E0600C780A3C04EB44048868A9
:1007C000A0401468E46820431468E06013E01068F7
:1007D00000690C7804EB44050724AC40A04314687E
:1007E00020610C7804EB44048868A04014682469F4
:1007F0002043146820614868072817D21068406BAE
:100800000C79641E04EB84051F24AC40A0431468DB
:100810006063088880B20C79641E04EB8404A040F5
:100820001468646B20431468606331E048680D28E5
:1008300017D21068006B0C79E41F04EB84051F24A9
:10084000AC40A04314682063088880B20C79E41F90
:1008500004EB8404A0401468246B204314682063D4
:1008600016E01068C06A0C790D3C04EB84051F2467
:10087000AC40A0431468E062088880B20C790D3C5B
:1008800004EB8404A0401468E46A20431468E06226
:10089000194B1A4C1068A04206D10868122803D1DF
:1008A000586840F480005860144C1068A0421CD175
:1008B0000868102802D00868112816D1586840F43A
:1008C00000005860086810280FD10D4800680D4CD2
:1008D000B0FBF4F000EB80004000009002E00098D4
:1008E000401E009000980028F9D100BF002082F837
:1008F0003C0000BF00BF4BE7002301400020014047
:100900002400002040420F0010B50446204600F0AD
:100910000CF80349086001200249086010BD00007E
:10092000080000200C000020704701460868C06CD9
:10093000704770B504460025002620680068C0F3A3
:10094000400520684068C0F3401695B38EB3206C14
:1009500000F0100018B9206C40F40070206420688A
:10096000806800F04050E8B9A069D8B92068C06A32
:1009700000F4700020B12068806800F4806088B9BD
:100980002068406820F0200021684860206C20F436
:1009900080702064206C00F4805018B9206C40F006
:1009A000010020642046FFF7AFFF6FF012002168BE
:1009B000086020680068C0F3800520684068C0F3C4
:1009C000C016E5B3DEB3206C00F0100018B9206C3F
:1009D00040F4005020642068806800F4401038BB68
:1009E0002068806B00F4401020B12068806800F41B
:1009F0008060E8B92068406800F48060C0B9206871
:100A0000806800F0405098B9A06988B920684068B3
:100A100020F0800021684860206C20F48050206421
:100A2000206C00F4807018B9206C40F00100206444
:100A30002046FFF7A2FE6FF00C00216808602068D6
:100A4000006800F0010520684068C0F3801685B199
:100A50007EB12068006800F0010050B1206C40F4C5
:100A600080302064204600F053F86FF001002168C8
:100A7000086020680068C0F3401520684068C0F333
:100A800080667DB176B1606C40F0020060646FF00A
:100A90002000216808602046FFF746FF6FF0200025
:100AA0002168086070BD000070B5044600250CB9CF
:100AB000012070BD1549A06A884200D000BF206C9B
:100AC00030B90020606484F83C00204600F022F831
:100AD000206C00F0100088B9206C20F4885040F0A1
:100AE000020020642046FFF723FD00206064206C94
:100AF00020F0020040F00100206400E0012500BF6A
:100B0000002084F83C0000BF2846D2E70100000F17
:100B10007047000010B586B004462449206888421A
:100B200042D100BF002000902148006840F480704E
:100B30001F4908600846006800F48070009000BFFC
:100B400000BF02200190032002900020039001A921
:100B5000184800F061FA18481849086000204860F9
:100B6000002116488160C1604FF4806101618900F5
:100B70004161890081618911C16100210162416285
:100B800000F0D4F918B17F210DA001F0F7FB00BFF0
:100B90000A48A063846300BF00220521122000F0F0
:100BA00012FC122000F002FC06B010BD0020014033
:100BB000443802400000024010640240D00000208F
:100BC0002E2E2F5372632F73746D33326634787800
:100BD0005F68616C5F6D73702E63000008B501463D
:100BE0000020009000BF91F83C00012801D10220B4
:100BF00008BD012081F83C0000BF0868806800F053
:100C00000100A0B90868806840F001000B68986096
:100C100031480068314BB0FBF3F000EB400000902E
:100C200002E00098401E009000980028F9D1086862
:100C3000806800F0010000284BD0086C40F201638E
:100C4000984340F4807008640868406800F480604D
:100C500028B1086C20F4005040F480500864086CFF
:100C600000F4805020B1486C20F00600486401E098
:100C70000020486400BF002081F83C0000BF184AF3
:100C80006FF022000B68186008684068154B184325
:100C90000B685860506800F01F0058B908688068F9
:100CA00000F04050A8B90868806840F080400B68A8
:100CB00098600EE00C4B086898420AD1086880687A
:100CC00000F0405028B90868806840F080400B6808
:100CD000986000208CE700002400002040420F00B4
:100CE000002301402000000400200140F8B5044624
:100CF000002000908C4800684FF41651B0FBF1F7CB
:100D0000A56D2E6894F85C1008208840304098B19A
:100D10002068006800F0040070B12068006820F0CE
:100D200004002168086094F85C1008208840A860DE
:100D3000606D40F00100606594F85C10012088400F
:100D4000304068B12068406900F0800040B194F8FC
:100D50005C1001208840A860606D40F00200606572
:100D600094F85C1004208840304068B12068006826
:100D700000F0020040B194F85C1004208840A860A4
:100D8000606D40F00400606594F85C1010208840AD
:100D9000304078B32068006800F0080050B394F841
:100DA0005C1010208840A8602068006800F4802053
:100DB00080B12068006800F4002028B9206CC8B118
:100DC0002046216C884715E0A06C98B12046A16CA4
:100DD00088470FE02068006800F4807028B9206818
:100DE000006820F0080021680860206C10B12046DF
:100DF000216C884794F85C102020884030400028FF
:100E000065D02068006800F0100000285FD094F8DA
:100E10005C1020208840A86094F83500052828D16F
:100E20002068006820F0160021680860206840698A
:100E300020F0800021684861206C08B9A06C28B1BE
:100E40002068006820F008002168086094F85C10B1
:100E50003F208840A86000BF002084F8340000BF15
:100E6000012084F83500206D10B12046216D88479F
:100E7000F8BD2068006800F4802080B12068006818
:100E800000F4002028B9606C10B12046616C8847DE
:100E90001DE0E06BD8B12046E16B884717E0206881
:100EA000006800F4807068B92068006820F01000C5
:100EB0002168086000BF002084F8340000BF0120D2
:100EC00084F83500E06B10B12046E16B8847606D17
:100ED00038B3606D00F00100F0B1052084F83500F2
:100EE0002068006820F001002168086000BF0098B9
:100EF000401C0090B84200D905E02068006800F06E
:100F000001000028F3D100BF00BF002084F83400A6
:100F100000BF012084F83500E06C10B12046E16C80
:100F2000884700BFA4E70000240000202DE9F0411D
:100F30000446002500F076F9074614B90120BDE803
:100F4000F081606A00B100BF00BF002084F8340067
:100F500000BF022084F835002068006820F00100FE
:100F6000216808600AE000F05DF9C01B052805D97A
:100F700020206065032084F83500E0E720680068E1
:100F800000F001000028EED12068056821480540E6
:100F9000D4E901010843E168084321690843616914
:100FA0000843A1690843E1690843216A08430543EE
:100FB000606A042803D1D4E90B0108430543206883
:100FC00005602068456925F00705606A0543606A89
:100FD00004280DD1A06A0543E06A48B12046FFF716
:100FE00077FB28B140206065012084F83500A6E732
:100FF000206845612046FFF751FB064694F85C10D7
:101000003F208840B06000206065012084F83500F2
:10101000002094E73F8010F0F8B502460B4600250B
:10102000002400200021DCE0012606FA01F51E68FC
:1010300006EA0504AC4273D15E68022E02D05E68F7
:10104000122E13D1CF0802F1200656F827004E07C2
:10105000F70E0F26BE40B0434F07FF0E1E69BE407D
:101060003043CF0802F1200646F8270010684F00F1
:101070000326BE40B0431E7906F003064F00BE4073
:10108000304310605E68012E08D05E68022E05D0E5
:101090005E68112E02D05E68122E13D190684F0048
:1010A0000326BE40B0434F00DE68BE403043906030
:1010B000506801268E40B0431E79C6F300168E405C
:1010C00030435060D0684F000326BE40B0434F000D
:1010D0009E68BE403043D0605E6806F08056B6F130
:1010E000805F7DD100BF00260096404E366846F4F2
:1010F00080463E4F3E603E46366806F48046009687
:1011000000BF00BF3A4E8F0856F827008E07370FF2
:101110000F26BE40B043374EB24202D1002624E033
:101120005EE0354EB24201D101261EE0334EB2429E
:1011300001D1022619E0324EB24201D1032614E059
:10114000304EB24201D104260FE02F4EB24201D1FF
:1011500005260AE02D4EB24201D1062605E02C4EAE
:10116000B24201D1072600E008268F073F0FBE409C
:1011700030431F4E8F0846F82700264E3068A043A4
:101180005E6806F48036B6F5803F00D12043214EDC
:101190003060361D3068A0435E6806F40036B6F550
:1011A000003F00D120431B4E361D3060361D306895
:1011B000A0435E6806F48016B6F5801F00D1204378
:1011C000144E08363060361D3068A0435E6806F461
:1011D0000016B6F5001F00D120430E4E0C363060CD
:1011E000491C1029FFF420AFF8BD0000443802402C
:1011F000083801400000024000040240000802409C
:10120000000C02400010024000140240001802408E
:10121000001C0240003C01400AB1816101E00B0466
:101220008361704701480068704700001800002083
:101230000348006803490978084401490860704779
:10124000180000202000002010B50D48006840F470
:1012500000700B4908600846006840F48060086030
:101260000846006840F480700860032000F0EAF847
:10127000002000F007F800F04BF8002010BD00003F
:10128000003C024070B588B00446002500260022CC
:101290002146192000F097F8192000F087F800BFC8
:1012A000002001901648006840F0010014490860D1
:1012B0000846006800F00100019000BF00BF02A9CD
:1012C00003A800F093F900F0B9F945000D48B5FB0B
:1012D000F0F0461E0C480D49086040F2E7310B481B
:1012E000C160466000210161816000F094FC20B97A
:1012F000064800F0DEFC08B070BD0120FBE70000EE
:101300004438024040420F00000001406C010020C0
:1013100008B500BF002000902348006840F48040DA
:10132000214908600846006800F48040009000BF32
:1013300000BF00BF00200090081F006840F08050F0
:10134000091F08600846006800F08050009000BF48
:1013500000BF032000F076F8002211466FF00B006A
:1013600000F031F8002211466FF00A0000F02BF86F
:10137000002211466FF0090000F025F80022114606
:10138000501F00F020F800221146101F00F01BF83B
:1013900000220F21901E00F016F800220F21501E8F
:1013A00000F011F808BD00004438024000BF00F012
:1013B0001F02012191404209920002F1E022C2F88D
:1013C000001100BF70472DE9F05F80460D461646BC
:1013D000002700F075FE074639462A46334601F0DD
:1013E0000700C0F1070ABAF1040F02D94FF0040A4E
:1013F00001E0C0F1070AD14600F1040ABAF1070F73
:1014000002D24FF0000A01E0A0F1030AD4464FF0E7
:10141000010A0AFA09FAAAF1010A0AEA020A0AFA10
:101420000CFA4FF0010B0BFA0CFBABF1010B0BEAC2
:10143000030B4AEA0B042146404600F049FEBDE892
:10144000F09F000000BF00F00702064B19684FF63E
:10145000FF031940044B0B4343EA0221014B19607F
:1014600000BF70470CED00E00000FA0570B50446BF
:101470000D460CB9012070BD5848006800F00F00FF
:10148000A84209D255490D700846006800F00F00C7
:10149000A84201D00120EEE7207800F002000228E7
:1014A0001DD1207800F00400042805D14C480068C4
:1014B00040F4E0504A490860207800F0080008280D
:1014C00005D14748006840F46040454908604448F9
:1014D000006820F0F000A1680843414908602078C6
:1014E00000F00100A8B36068012807D13C48083823
:1014F0000068C0F34040B8B90120BCE7606802282A
:1015000002D06068032807D1354808380068C0F366
:10151000406048B90120AEE7314808380068C0F3A0
:10152000400008B90120A6E72D48006820F003001C
:10153000616808432A490860FFF774FE064609E01F
:10154000FFF770FE801B41F28831884202D90320E8
:1015500091E707E02248006800F00C006168B0EBFA
:10156000810FEDD11D48006800F00F00A84209D995
:101570001A490D700846006800F00F00A84201D01B
:10158000012078E7207800F00400042807D11448EF
:10159000006820F4E050E1680843114908602078B1
:1015A00000F00800082808D10D48006820F46040C9
:1015B000216940EAC1000A49086000F04FF8084973
:1015C0000968C1F30311074A515CC8400649086025
:1015D0000020FFF757FE00204DE70000003C0240CE
:1015E000083802406C320008240000200F220260FC
:1015F0000D4A126802F0030242600B4A126802F0C0
:10160000F0028260084A126802F4E052C260064AA0
:10161000126802F46042D2080261044A126802F0C1
:101620000F020A607047000008380240003C024088
:1016300001480068704700002400002000B5FFF753
:10164000F7FF04490968C1F34231034A515CC840BD
:1016500000BD0000083802407C3200082DE9F04748
:10166000002400250026A1462548006800F00C0053
:1016700020B1042805D008283AD105E0DFF884908D
:1016800039E0DFF8849036E01D48001F006800F064
:101690003F041B48001F006800F4800078B11A481E
:1016A0001749091F0968C1F38811A0FB01700146A1
:1016B000224600233846FEF7E1FD05460EE01148BC
:1016C0000F49091F0968C1F38811A0FB0170014689
:1016D000224600233846FEF7D1FD05460848001F84
:1016E0000068C0F30140401C4600B5FBF6F902E07B
:1016F000DFF8109000BF00BF4846BDE8F08700004B
:10170000083802400024F40000127A00F8B50446BC
:101710000CB90120F8BD207800F00100002874D039
:10172000F948006800F00C0004280DD0F648006865
:1017300000F00C00082813D1F348001F006800F4E3
:101740008000B0F5800F0BD1EF4808380068C0F377
:101750004040002859D06068002856D10120D9E7C0
:1017600000BF6068B0F5803F08D1E74808380068DE
:1017700040F48030E449083908601EE06068B0F544
:10178000A02F0DD1E0480838006840F48020DE49E1
:10179000083908600846006840F4803008600CE0B2
:1017A000D9480838006820F48030D74908390860E3
:1017B0000846006820F48020086000BF606890B18F
:1017C000FFF730FD054606E0FFF72CFD401B6428BF
:1017D00001D903209EE7CC4808380068C0F3404098
:1017E0000028F1D011E0FFF71DFD054606E0FFF7E8
:1017F00019FD401B642801D903208BE7C248083833
:101800000068C0F340400028F1D1207800F00200C9
:1018100002285FD1BC48006800F00C0058B1BA48FB
:10182000006800F00C0008281CD1B748001F0068B1
:1018300000F48000B0B9B44808380068C0F3400034
:1018400020B1E068012801D0012063E7AE480838E4
:10185000006820F0F800216940EAC100AA4908396F
:10186000086037E0E06800B30120A8490860FFF78E
:10187000D9FC054606E0FFF7D5FC401B022801D93C
:10188000032047E7A04808380068C0F3400000285C
:10189000F1D09D480838006820F0F800216940EA3E
:1018A000C10099490839086014E000209749086090
:1018B000FFF7B8FC054606E0FFF7B4FC401B022822
:1018C00001D9032026E7904808380068C0F340009B
:1018D0000028F1D1207800F0080008282CD1606998
:1018E000A8B101208A490860FFF79CFC054606E084
:1018F000FFF798FC401B022801D903200AE7824821
:101900006C300068C0F340000028F1D014E00020E3
:101910007F490860FFF786FC054606E0FFF782FC7A
:10192000401B022801D90320F4E677486C30006898
:10193000C0F340000028F1D1207800F00400042812
:1019400070D1002670483830006800F0805090B99F
:1019500000BF002000906C483830006840F0805094
:101960006949383108600846006800F080500090EE
:1019700000BF00BF01266748006800F48070B0B95E
:101980006448006840F4807062490860FFF74AFCD0
:10199000054606E0FFF746FC401B022801D903205C
:1019A000B8E65C48006800F480700028F2D000BF00
:1019B000A068012808D154486830006840F0010050
:1019C0005149683108601DE0A06805280DD14E48D6
:1019D0006830006840F004004B49683108600846F0
:1019E000006840F0010008600CE04748683000687B
:1019F00020F001004449683108600846006820F082
:101A00000400086000BFA068A8B1FFF70BFC054602
:101A100009E0FFF707FC401B41F28831884202D9F8
:101A2000032077E626E0384868300068C0F34000BD
:101A30000028EED013E0FFF7F5FB054608E0FFF7BE
:101A4000F1FB401B41F28831884201D9032061E655
:101A50002D4868300068C0F340000028EFD1012E07
:101A600007D129483830006820F0805026493831A5
:101A7000086000BFA069B8B32348006800F00C00FC
:101A800008285ED0A069022846D100201F490866B8
:101A9000FFF7C8FB054606E0FFF7C4FB401B022822
:101AA00001D9032036E6184808380068C0F34060C2
:101AB0000028F1D1D4E907010843616A40EA8111A5
:101AC0000122A06AC2EB500041EA00412C20005DD7
:101AD00041EA00600C49091F086001200B490866B3
:101AE000FFF7A0FB054607E02DE0FFF79BFB401B3F
:101AF000022801D903200DE6034808380068C0F326
:101B000040600028F1D01EE0083802400000474243
:101B1000800E47420070004000200C490866FFF725
:101B200081FB054606E0FFF77DFB401B022801D93B
:101B30000320EFE506480068C0F340600028F2D1BA
:101B400001E00120E6E50020E4E500000000474256
:101B500000380240042808D14FF0E021096941F023
:101B600004014FF0E022116107E04FF0E021096924
:101B700021F004014FF0E0221161704770B5044676
:101B80002546681EB0F1807F01D301200FE0681E5A
:101B90004FF0E02148610F214FF0FF3000F098FA3C
:101BA00000204FF0E021886107200861002070BD0F
:101BB00070477047024600BF92F83800012801D1F3
:101BC00002207047012082F8380000BF022082F80E
:101BD00039001068406820F0700013685860106881
:101BE00040680B681843136858601068806820F0DC
:101BF000800013689860106880684B681843136809
:101C00009860012082F8390000BF002082F8380077
:101C100000BF00BFD5E710B504460CB9012010BDC8
:101C200094F8390028B9002084F83800204600F0E4
:101C30000DF8022084F83900211D206800F02CFBEB
:101C4000012084F839000020E9E7000038B5044697
:101C50000E492068884217D100BF002000900C4830
:101C6000006840F010000A4908600846006800F06B
:101C70001000009000BF00BF002205213620FFF7B2
:101C8000A2FB3620FFF792FB38BD00000010004099
:101C9000403802400146022081F839000868006897
:101CA00040F001000A681060012081F8390000202E
:101CB000704701460868C06840F001000A68D060BB
:101CC0000868006840F001000A6810600020704752
:101CD000704710B5044620680069C0F34000D8B1D1
:101CE0002068C068C0F34000B0B16FF00200216806
:101CF0000861012020762068806900F0030018B197
:101D00002046FFF7E5FF05E0204600F0ADF820464D
:101D100000F0ABF80020207620680069C0F3800056
:101D2000D8B12068C068C0F38000B0B16FF0040083
:101D300021680861022020762068806900F44070E4
:101D400018B12046FFF7C4FF05E0204600F08CF8EC
:101D5000204600F08AF80020207620680069C0F351
:101D6000C000D8B12068C068C0F3C000B0B16FF047
:101D7000080021680861042020762068C06900F00E
:101D8000030018B12046FFF7A3FF05E0204600F04E
:101D90006BF8204600F069F8002020762068006982
:101DA000C0F30010D8B12068C068C0F30010B0B113
:101DB0006FF0100021680861082020762068C06953
:101DC00000F4407018B12046FFF782FF05E020467E
:101DD00000F04AF8204600F048F8002020762068FD
:101DE000006900F0010058B12068C06800F00100EF
:101DF00030B16FF0010021680861204600F036F82C
:101E000020680069C0F3C01058B12068C068C0F3F2
:101E1000C01030B16FF08000216808612046FFF7E4
:101E2000C7FE20680069C0F3801058B12068C06800
:101E3000C0F3801030B16FF0400021680861204687
:101E400000F020F820680069C0F3401058B1206805
:101E5000C068C0F3401030B16FF020002168086105
:101E60002046FFF7A6FE10BD7047704710B5044628
:101E700003492068884201D1FFF7DAF910BD00005C
:101E800000000140704700001FB51848184908605D
:101E90004FF48030486000211548816001210161C4
:101EA000816100210162C162124981620021C16029
:101EB0000121C1610021016301214161FEF7F4FDAF
:101EC00020B140F201110CA000F058FA012000905E
:101ED00001900020029069460548FEF74FFC20B1B2
:101EE00040F20B1104A000F049FA1FBD0020014090
:101EF000880000200100000F2E2E2F5372632F6DDB
:101F000061696E2E6300000008B500BF00200090DC
:101F10000A48006840F480000849086008460068E4
:101F200000F48000009000BF00BF0022052138208F
:101F3000FFF749FA3820FFF739FA08BD3038024078
:101F400000B587B000BF002001903F48006840F016
:101F500004003D4908600846006800F00400019054
:101F600000BF00BF00BF002001900846006840F09D
:101F7000800008600846006800F08000019000BF03
:101F800000BF00BF002001900846006840F001003B
:101F900008600846006800F00100019000BF00BF23
:101FA00000BF002001900846006840F00200086071
:101FB0000846006800F00200019000BF00BF00BFAB
:101FC000002001900846006840F0080008600846BC
:101FD000006800F00800019000BF00BF00224FF42D
:101FE00070411A48FFF718F9012002901848039031
:101FF0000020049002A91748FFF70EF80420029071
:1020000000200390049002A91348FFF705F84FF44D
:10201000704002900120039002200490002005905F
:1020200002A90A48FEF7F8FF8020029002200390E0
:102030000020049005900620069002A90748FEF7AC
:10204000EBFF07B000BD000030380240000C02403A
:10205000000012100000024000040240000802408C
:102060001CB51148114908604AF21040486000212F
:102070000E4881604FF47A71C160FFF7CCFD20B14A
:102080004FF48E710AA000F079F920200090002012
:10209000019069460548FFF78DFD20B140F22311FC
:1020A00003A000F06BF91CBD0010004030010020BF
:1020B0002E2E2F5372632F6D61696E2E6300000008
:1020C00002480068C0F30220704700000CED00E0F9
:1020D00010B5002807DA0A07140E054A00F00F03AE
:1020E0001B1FD45403E00A07130E024A135410BDF9
:1020F00018ED00E000E400E000BF012211030848F1
:10210000FFF78AF8C82000F0C8F900224FF4805188
:102110000348FFF781F8C82000F0BFF9EDE70000A1
:10212000000C024010B500F0C9F910BD10B592B016
:1021300000BF002000902F48006840F080502D49DB
:1021400008600846006800F08050009000BF00BFA3
:1021500000BF002000902848006840F480402649D5
:1021600008600846006800F48040009000BF00BF8F
:10217000012006900004079002200C9041050D916B
:1021800008210E914FF4A8710F910221109107219F
:10219000119106A8FFF7BAFA18B1CE2117A000F0E6
:1021A000EDF80F20019002200290002003904FF4E0
:1021B000C05004904FF480500590052101A8FFF70E
:1021C00055F918B1DC210DA000F0D8F8FFF730FA6E
:1021D0004FF47A71B0FBF1F42046FFF7CFFC0420F6
:1021E000FFF7B8FC00220F21501EFFF7ECF812B0E9
:1021F00010BD000040380240007000402E2E2F53CA
:1022000072632F6D61696E2E6300000014480068D0
:1022100040F47000124908601248006840F0010064
:102220001049086000200F49083108600D48006817
:102230000D4908400B4908600C48091D0860081F3B
:10224000006820F48020091F0860002005490C3137
:1022500008604FF000600249803908607047000054
:1022600088ED00E000380240FFFFF6FE1030002449
:1022700010B50248FFF72DFD10BD00006C010020D5
:1022800010B50348FEF7AAFC0248FFF722FD10BD77
:102290008800002030010020002202682C4B984268
:1022A0000ED0B0F1804F0BD02A4B984208D02A4B69
:1022B000984205D0294B984202D0294B984201D12F
:1022C000012300E000231BB122F070024B681A4387
:1022D0001F4B984220D0B0F1804F1DD01D4B98422B
:1022E0001AD01D4B984217D01C4B984214D01C4B4F
:1022F000984211D01B4B98420ED01B4B98420BD0EA
:102300001A4B984208D01A4B984205D0194B984264
:1023100002D0194B984201D1012300E000231BB1E8
:1023200022F44072CB681A4302608B68C3620B6868
:102330008362074B984202D0094B984201D1012396
:1023400000E000230BB10B69036301234361704775
:10235000000001400004004000080040000C004064
:102360000004014000400140004401400048014099
:1023700000180040001C00400020004000BFFEE7A5
:1023800002E008C8121F08C1002AFAD1704770473E
:10239000002001E001C1121F002AFBD1704700009C
:1023A0002DED028B19E00D48006898B10C490968C1
:1023B00001EB8100FEF714F841EC180B9FED090BBF
:1023C00053EC102BFDF79DFF084A03C20020034980
:1023D000086002E0012000F060F8E4E70C00002053
:1023E000080000207B14AE47E17A34401000002042
:1023F00088B0FEF729FFFFF799FEFFF7A1FDFFF771
:1024000083FDFFF741FDFFF72BFE1548FFF742FC68
:102410001348FFF74EFC1348FEF7E0FB002012497B
:1024200008609FED120B134880ED000B1422124937
:1024300003A8FDF754FF002103A800F047F80F4957
:1024400008600020012103468022CDE900100CA184
:102450000D4800F097FD00F02CF800BFFEE70000EB
:1024600030010020880000200C0000200000000047
:10247000E0FFEF4010000020503200080000002074
:10248000436F6E7665727400A12300080146002038
:10249000842901D0CA1C1044704770B504462546F3
:1024A0000DB1294600E00121084600F0F3FB0020B1
:1024B00070BD10B500F01CFC002010BD10B500F080
:1024C00091FD012801D000F043FD10BDFEB504468A
:1024D0000D46B4F90800FFF7D9FF064602A8CDE97A
:1024E0000060238A9AB22B46D4E9001000F04AFD1E
:1024F000012801D00020FEBD0298FCE72DE9F04143
:1025000005460E461C4807681C480068001D00F080
:10251000D5FA50B91948006890F82C10012088406D
:1025200017490968814316480160681C38B936B1FB
:1025300012480168091D134800F0FEFA1AE07C19E0
:102540000E4800684460BC4207D20C480168091D6F
:102550000D48006800F0D6FA0CE008480168091D33
:102560000A48006800F0CEFA09480068844201D2A7
:1025700007480460BDE8F081600000204C000020A6
:1025800064000020843E0020540000205000002001
:102590007C00002010B5044600F0DAFA23480068F9
:1025A000401C224908602248006840B92048046065
:1025B0000846006801280DD100F02AF90AE01D48FC
:1025C000006838B91A480068C06AE16A884201D8D0
:1025D0001748046018480068401C1749086094F8C0
:1025E0002C100120884015490968084313490860E8
:1025F000E16A01EB8101124A02EB8100211D00F02A
:102600009BFA00F0CFFA0B48006868B108480068F0
:10261000C06AE16A884207D24FF0805009490860D9
:10262000BFF34F8FBFF36F8F10BD00005C00002021
:102630004C0000206800002078000020640000208A
:10264000A83D002004ED00E070B523E000F094FB0D
:102650001348006808B9012000E00020054600F09A
:1026600075FDBDB900F074FA0D48C068C468201D3E
:1026700000F024FA0B480068401E0A4908600A4826
:102680000068401E0849086000F08CFA204600F0FF
:102690000DF800BF044800680028D7D170BD0000C5
:1026A000703E00205C0000205800002010B5044659
:1026B000206B00F095FA204600F092FA10BD000061
:1026C00030B54FF47053174800F007042CB1C01D0B
:1026D00020F00700134C041B1B1B0246124C226007
:1026E0000024114D6C60D018083820F007000F4C02
:1026F000206000240D4D2D686C600C4D2D682C6001
:102700001146441A4C60094C24680C60084D4C6812
:102710002C60084D4C682C604FF00044064D2C6036
:1027200030BD0000A801002028000020300000205B
:1027300038000020340000203C00002000BFFFF7DC
:1027400083FF064800680128F9D94FF080500449FA
:102750000860BFF34F8FBFF36F8FF0E7A83D0020F5
:1027600004ED00E02DE9FF5F81460F469246DDE96A
:102770000E6B109CAAF10100216B01EB800828F080
:10278000070808F0070008B9012000E0002050B950
:1027900000BF502080F31188BFF34F8FBFF36F8FBE
:1027A00000BF00BFFEE7002507E0795D04F13400BB
:1027B0004155785D00B902E06D1C102DF5D300BFC6
:1027C000002143200155072E00D30626E6626664E9
:1027D0000020A064201D00F092F904F1180000F020
:1027E0008EF92461C6F10700A06164620020E064F4
:1027F00084F8500049464046039A00F049F92060A9
:10280000BBF1000F01D0CBF80040BDE8FF9F0000F6
:1028100010B5002407E004EB84010F4A02EB8100AD
:1028200000F060F9641C072CF5D30C4800F05AF94D
:102830000B4800F057F90B4800F054F90A4800F033
:1028400051F90A4800F04EF9044809490860044863
:102850000849086010BD0000A83D0020343E00205B
:10286000483E00205C3E0020703E0020843E002058
:10287000500000205400002010B50146164800E02A
:10288000006803688B42FBD30246436813448B42C3
:1028900004D143684C682344436001460A464B68B0
:1028A00013440468A34211D10C4C03682468A3426A
:1028B00008D04B680468646823444B6003681B6855
:1028C0000B6005E0054B1B680B6001E003680B60C3
:1028D000884200D0016010BD280000203000002098
:1028E0000A490968096809B9012100E0002121B1FC
:1028F0004FF0FF31064A116006E004490968C968D3
:10290000C868034A41681160704700005000002009
:102910007C0000200E480068401C08B9012000E03F
:10292000002050B900BF502080F31188BFF34F8FB3
:10293000BFF36F8F00BF00BFFEE700BF502080F3E2
:102940001188BFF34F8FBFF36F8F00BF00BFFEE74B
:10295000400000202DE9F04104464FF0000800F04F
:102960000BFA4648006808B9FFF7AAFE4448006819
:10297000204000286BD1D4B1083404F00700B0B176
:1029800004F00700C0F10800044404F0070008B98F
:10299000012000E0002050B900BF502080F31188D2
:1029A000BFF34F8FBFF36F8F00BF00BFFEE7002C58
:1029B0004DD034480068844249D8334E30460568CB
:1029C00001E02E462D686868A04202D228680028DF
:1029D000F7D12A480068854239D0306800F10808EC
:1029E000286830606868001B102819D92F1907F073
:1029F000070008B9012000E0002050B900BF5020B6
:102A000080F31188BFF34F8FBFF36F8F00BF00BFFC
:102A1000FEE76868001B78606C603846FFF72CFFA3
:102A2000184968680968081A164908600846006865
:102A300016490968884203D21248006813490860A1
:102A40000F4968680968084368600020286000F042
:102A50007DFB08F0070008B9012000E0002050B914
:102A600000BF502080F31188BFF34F8FBFF36F8FEB
:102A700000BF00BFFEE74046BDE8F0813000002007
:102A80003C000020340000202800002038000020F6
:102A9000001F4FF080730360001F21F001030360EB
:102AA000001F054B036014380260001F6FF0020323
:102AB00003602038704700001529000801460A69A4
:102AC000D1E901309860D1E901035860506888422B
:102AD00001D188685060002008611068401E1060B5
:102AE0001068704700F1080141604FF0FF318160CC
:102AF00000F10801C16001610021016070470021FF
:102B00000161704710B502460B685C1C0CB9106976
:102B100007E002F1080000E04068446824689C4235
:102B2000FAD944684C604C68A160886041600A61D1
:102B30001468641C146010BD42684A6093688B601E
:102B4000936859609160086103685B1C036070477B
:102B500000BF502080F31188BFF34F8FBFF36F8FFA
:102B600000BF0E480068401C0C4908600846006819
:102B7000012812D10A480068C0B208B9012000E05B
:102B8000002050B900BF502080F31188BFF34F8F51
:102B9000BFF36F8F00BF00BFFEE77047400000200B
:102BA00004ED00E00D48006850B900BF502080F3EC
:102BB0001188BFF34F8FBFF36F8F00BF00BFFEE7D9
:102BC00006480068401E054908600846006820B9AC
:102BD000002080F3118800BF00BF70474000002034
:102BE00070B506463546002E3FD0083D2C461F499D
:102BF00060680968084008B1012000E0002050B971
:102C000000BF502080F31188BFF34F8FBFF36F8F49
:102C100000BF00BFFEE7206808B9012000E00020E7
:102C200050B900BF502080F31188BFF34F8FBFF31E
:102C30006F8F00BF00BFFEE70C496068096808405D
:102C400098B1206888B9094960680968884360605C
:102C500000F092F806496068096808440449086071
:102C60002046FFF709FE00F071FA70BD3C0000201D
:102C700034000020064800684FF47A71B0FBF1F090
:102C8000401E4FF0E02148610720086170470000B6
:102C90002400002070B504460025D4B11248006815
:102CA00008B9012000E0002050B900BF502080F397
:102CB0001188BFF34F8FBFF36F8F00BF00BFFEE7D8
:102CC00000F05AF800212046FFF718FC00F03EFA09
:102CD00005463DB94FF0805004490860BFF34F8F5F
:102CE000BFF36F8F70BD00008400002004ED00E092
:102CF0001CB51A4800210B468022CDE9001018A10E
:102D0000194800F03FF90446012C15D100BF5020AE
:102D100080F31188BFF34F8FBFF36F8F00BF4FF069
:102D2000FF30124908600120114908600020114954
:102D3000086000F06FF810E0601C08B1012000E0AE
:102D4000002050B900BF502080F31188BFF34F8F8F
:102D5000BFF36F8F00BF00BFFEE71CBD80000020E7
:102D600049444C45000000003D2700087C0000203D
:102D7000680000206000002002480068401C0149F3
:102D800008607047840000201D48006818B10120C9
:102D90001C49086032E000201A4908601A4800689F
:102DA000B0FA80F0C0F11F0101EB8100174A52F820
:102DB000200008B1012000E0002050B900BF5020E1
:102DC00080F31188BFF34F8FBFF36F8F00BF00BF39
:102DD000FEE701EB81020D4B03EB82004268526873
:102DE000426000F108024368934202D1426852688F
:102DF00042604268D268064B1A6000BF704700000C
:102E0000840000207000002064000020A83D002005
:102E10004C0000201CB5474800684749884201D053
:102E2000012000E0002050B900BF502080F311883D
:102E3000BFF34F8FBFF36F8F00BF00BFFEE73D486A
:102E400000683D49491E884201D0012000E0002071
:102E500050B900BF502080F31188BFF34F8FBFF3EC
:102E60006F8F00BF00BFFEE734490846007801902D
:102E7000FF200A4610700846007800909DF8000078
:102E800000F0F0009DF80020904201D1012000E008
:102E9000002050B900BF502080F31188BFF34F8F3E
:102EA000BFF36F8F00BF00BFFEE79DF8000000F08A
:102EB0005000234A10700720224A106009E0214880
:102EC0000068401E1F4A10609DF800004006000E7A
:102ED00000909DF8000000F080008028EFD0194895
:102EE00000680002174A10601046008800F4E06095
:102EF0001060124A019810700E482030006840F4AB
:102F000070000C49203108600846006840F07040AD
:102F10000860FFF7AFFE00200B490860FDF75EF97F
:102F20000A48006840F0404008490860FDF746F94B
:102F300000201CBD00ED00E071C20F4100E400E084
:102F400044000020480000204000002034EF00E052
:102F500010B500BF502080F31188BFF34F8FBFF32F
:102F60006F8F00BF00F04EF818B14FF08050044949
:102F7000086000BF002080F3118800BF10BD000072
:102F800004ED00E02DE9FF4F85B0804689461746E5
:102F9000DDE912ABB800FFF7DDFC064656B1542060
:102FA000FFF7D8FC04460CB1266304E03046FFF777
:102FB00017FE00E000247CB10020CDE900ABCDE994
:102FC00002403A4649464046089BFFF7CBFB204665
:102FD000FFF7E0FA012501E04FF0FF35284609B080
:102FE000BDE8F08F0549096809B9012005E00449E9
:102FF000096809B9022000E000207047680000203D
:10300000840000202DE9F0414FF00008444800689A
:10301000002877D143480068451C4248056015BB2D
:1030200041480068006808B9012000E0002050B95C
:1030300000BF502080F31188BFF34F8FBFF36F8F15
:1030400000BF00BFFEE738480768384800683649C7
:1030500008603648076036480068401C34490860FC
:10306000FFF73EFC00BF3348006885423CD300BFF9
:103070002D480068006808B9012000E0002020B158
:103080004FF0FF302B4908602DE027480068C068EA
:10309000C4686668B54202D22648066023E0201D57
:1030A000FFF70CFDA06A18B104F11800FFF706FD48
:1030B00094F82C10012088401F49096808431E49D4
:1030C0000860E16A01EB81011C4A02EB8100211DCD
:1030D000FFF732FD1A49E06A0968C96A8842C7D316
:1030E0004FF00108C4E700BF15480068C06A00EB54
:1030F0008000124951F82000012801D94FF0010841
:1031000005E0FFE70F480068401C0E4908600E48C4
:10311000006808B14FF001084046BDE8F0810000AA
:103120008400002060000020500000205400002097
:10313000740000207C00002064000020A83D0020D6
:103140004C0000206C0000207000002070B50024AE
:1031500000263648006850B900BF502080F311881F
:10316000BFF34F8FBFF36F8F00BF00BFFEE7FFF7C6
:10317000EFFC2E480068401E2C4908600846006895
:1031800000284FD12A48006800284BD024E0294865
:10319000C068C46804F11800FFF790FC201DFFF719
:1031A0008DFC94F82C1001208840234909680843BD
:1031B00021490860E16A01EB8101204A02EB8100AC
:1031C000211DFFF7B9FC1E49E06A0968C96A8842F7
:1031D00002D301201B4908601648006808B9012085
:1031E00000E000200028D2D00CB1FFF779FB164890
:1031F000056865B100BFFFF705FF10B10120114957
:1032000008606D1E002DF6D100200F4908600D48A2
:10321000006838B1012630070C490860BFF34F8FB2
:10322000BFF36F8FFFF7BEFC304670BD84000020F7
:103230005C0000205C3E002064000020A83D0020CF
:103240004C000020700000206C00002004ED00E025
:1032500084320008F920000800000000000000008F
:103260008000000000061016000610160000000086
:103270000000000001020304060708090000000026
:103280000102030464656661756C745461736B00BC
:10329000B0320008000000208800000080230008F1
:1032A00038330008880000201042000090230008F6
:1032B000000000000000000000000000000000000E
:1032C00000000000000000000000000010000000EE
:1032D000010000000024F4000000000000000000D5
:1032E00000000000000000000000000000000000DE
:1032F000AAAAAAAA00000000000000000000000026
:1033000000000000000000000000000000000000BD
:1033100000000000000000000000000000000000AD
:10332000000000000000000000000000000000009D
:08333000000000000000000095
:040000050800018965
:00000001FF
